{
  "_format": "hh-sol-artifact-1",
  "contractName": "NekoinsToken",
  "sourceName": "contracts/nekoinstoken.sol",
  "abi": [
    {
      "inputs": [],
      "stateMutability": "nonpayable",
      "type": "constructor"
    },
    {
      "inputs": [
        {
          "internalType": "address",
          "name": "spender",
          "type": "address"
        },
        {
          "internalType": "uint256",
          "name": "allowance",
          "type": "uint256"
        },
        {
          "internalType": "uint256",
          "name": "needed",
          "type": "uint256"
        }
      ],
      "name": "ERC20InsufficientAllowance",
      "type": "error"
    },
    {
      "inputs": [
        {
          "internalType": "address",
          "name": "sender",
          "type": "address"
        },
        {
          "internalType": "uint256",
          "name": "balance",
          "type": "uint256"
        },
        {
          "internalType": "uint256",
          "name": "needed",
          "type": "uint256"
        }
      ],
      "name": "ERC20InsufficientBalance",
      "type": "error"
    },
    {
      "inputs": [
        {
          "internalType": "address",
          "name": "approver",
          "type": "address"
        }
      ],
      "name": "ERC20InvalidApprover",
      "type": "error"
    },
    {
      "inputs": [
        {
          "internalType": "address",
          "name": "receiver",
          "type": "address"
        }
      ],
      "name": "ERC20InvalidReceiver",
      "type": "error"
    },
    {
      "inputs": [
        {
          "internalType": "address",
          "name": "sender",
          "type": "address"
        }
      ],
      "name": "ERC20InvalidSender",
      "type": "error"
    },
    {
      "inputs": [
        {
          "internalType": "address",
          "name": "spender",
          "type": "address"
        }
      ],
      "name": "ERC20InvalidSpender",
      "type": "error"
    },
    {
      "inputs": [
        {
          "internalType": "address",
          "name": "owner",
          "type": "address"
        }
      ],
      "name": "OwnableInvalidOwner",
      "type": "error"
    },
    {
      "inputs": [
        {
          "internalType": "address",
          "name": "account",
          "type": "address"
        }
      ],
      "name": "OwnableUnauthorizedAccount",
      "type": "error"
    },
    {
      "anonymous": false,
      "inputs": [
        {
          "indexed": true,
          "internalType": "address",
          "name": "owner",
          "type": "address"
        },
        {
          "indexed": true,
          "internalType": "address",
          "name": "spender",
          "type": "address"
        },
        {
          "indexed": false,
          "internalType": "uint256",
          "name": "value",
          "type": "uint256"
        }
      ],
      "name": "Approval",
      "type": "event"
    },
    {
      "anonymous": false,
      "inputs": [
        {
          "indexed": true,
          "internalType": "address",
          "name": "previousOwner",
          "type": "address"
        },
        {
          "indexed": true,
          "internalType": "address",
          "name": "newOwner",
          "type": "address"
        }
      ],
      "name": "OwnershipTransferred",
      "type": "event"
    },
    {
      "anonymous": false,
      "inputs": [
        {
          "indexed": true,
          "internalType": "address",
          "name": "from",
          "type": "address"
        },
        {
          "indexed": true,
          "internalType": "address",
          "name": "to",
          "type": "address"
        },
        {
          "indexed": false,
          "internalType": "uint256",
          "name": "value",
          "type": "uint256"
        }
      ],
      "name": "Transfer",
      "type": "event"
    },
    {
      "inputs": [
        {
          "internalType": "address",
          "name": "owner",
          "type": "address"
        },
        {
          "internalType": "address",
          "name": "spender",
          "type": "address"
        }
      ],
      "name": "allowance",
      "outputs": [
        {
          "internalType": "uint256",
          "name": "",
          "type": "uint256"
        }
      ],
      "stateMutability": "view",
      "type": "function"
    },
    {
      "inputs": [],
      "name": "annualEmission",
      "outputs": [
        {
          "internalType": "uint256",
          "name": "",
          "type": "uint256"
        }
      ],
      "stateMutability": "view",
      "type": "function"
    },
    {
      "inputs": [
        {
          "internalType": "address",
          "name": "spender",
          "type": "address"
        },
        {
          "internalType": "uint256",
          "name": "value",
          "type": "uint256"
        }
      ],
      "name": "approve",
      "outputs": [
        {
          "internalType": "bool",
          "name": "",
          "type": "bool"
        }
      ],
      "stateMutability": "nonpayable",
      "type": "function"
    },
    {
      "inputs": [
        {
          "internalType": "address",
          "name": "account",
          "type": "address"
        }
      ],
      "name": "balanceOf",
      "outputs": [
        {
          "internalType": "uint256",
          "name": "",
          "type": "uint256"
        }
      ],
      "stateMutability": "view",
      "type": "function"
    },
    {
      "inputs": [],
      "name": "burnRate",
      "outputs": [
        {
          "internalType": "uint256",
          "name": "",
          "type": "uint256"
        }
      ],
      "stateMutability": "view",
      "type": "function"
    },
    {
      "inputs": [],
      "name": "decimals",
      "outputs": [
        {
          "internalType": "uint8",
          "name": "",
          "type": "uint8"
        }
      ],
      "stateMutability": "view",
      "type": "function"
    },
    {
      "inputs": [
        {
          "internalType": "address",
          "name": "to",
          "type": "address"
        }
      ],
      "name": "emitAnnualTokens",
      "outputs": [],
      "stateMutability": "nonpayable",
      "type": "function"
    },
    {
      "inputs": [],
      "name": "lastEmissionTime",
      "outputs": [
        {
          "internalType": "uint256",
          "name": "",
          "type": "uint256"
        }
      ],
      "stateMutability": "view",
      "type": "function"
    },
    {
      "inputs": [],
      "name": "maxSupply",
      "outputs": [
        {
          "internalType": "uint256",
          "name": "",
          "type": "uint256"
        }
      ],
      "stateMutability": "view",
      "type": "function"
    },
    {
      "inputs": [],
      "name": "name",
      "outputs": [
        {
          "internalType": "string",
          "name": "",
          "type": "string"
        }
      ],
      "stateMutability": "view",
      "type": "function"
    },
    {
      "inputs": [],
      "name": "owner",
      "outputs": [
        {
          "internalType": "address",
          "name": "",
          "type": "address"
        }
      ],
      "stateMutability": "view",
      "type": "function"
    },
    {
      "inputs": [],
      "name": "renounceOwnership",
      "outputs": [],
      "stateMutability": "nonpayable",
      "type": "function"
    },
    {
      "inputs": [],
      "name": "symbol",
      "outputs": [
        {
          "internalType": "string",
          "name": "",
          "type": "string"
        }
      ],
      "stateMutability": "view",
      "type": "function"
    },
    {
      "inputs": [],
      "name": "totalSupply",
      "outputs": [
        {
          "internalType": "uint256",
          "name": "",
          "type": "uint256"
        }
      ],
      "stateMutability": "view",
      "type": "function"
    },
    {
      "inputs": [
        {
          "internalType": "address",
          "name": "to",
          "type": "address"
        },
        {
          "internalType": "uint256",
          "name": "value",
          "type": "uint256"
        }
      ],
      "name": "transfer",
      "outputs": [
        {
          "internalType": "bool",
          "name": "",
          "type": "bool"
        }
      ],
      "stateMutability": "nonpayable",
      "type": "function"
    },
    {
      "inputs": [
        {
          "internalType": "address",
          "name": "from",
          "type": "address"
        },
        {
          "internalType": "address",
          "name": "to",
          "type": "address"
        },
        {
          "internalType": "uint256",
          "name": "value",
          "type": "uint256"
        }
      ],
      "name": "transferFrom",
      "outputs": [
        {
          "internalType": "bool",
          "name": "",
          "type": "bool"
        }
      ],
      "stateMutability": "nonpayable",
      "type": "function"
    },
    {
      "inputs": [
        {
          "internalType": "address",
          "name": "newOwner",
          "type": "address"
        }
      ],
      "name": "transferOwnership",
      "outputs": [],
      "stateMutability": "nonpayable",
      "type": "function"
    }
  ],
  "bytecode": "0x60806040526a52b7d2dcc80cd2e40000006006556a084595161401484a00000060075560056009553480156200003457600080fd5b50336040518060400160405280600781526020017f4e454b4f494e53000000000000000000000000000000000000000000000000008152506040518060400160405280600381526020017f4e454b00000000000000000000000000000000000000000000000000000000008152508160039081620000b3919062000864565b508060049081620000c5919062000864565b505050600073ffffffffffffffffffffffffffffffffffffffff168173ffffffffffffffffffffffffffffffffffffffff16036200013d5760006040517f1e4fbdf700000000000000000000000000000000000000000000000000000000815260040162000134919062000990565b60405180910390fd5b6200014e816200017960201b60201c565b506200016c336a21165458500521280000006200023f60201b60201c565b4260088190555062000b6f565b6000600560009054906101000a900473ffffffffffffffffffffffffffffffffffffffff16905081600560006101000a81548173ffffffffffffffffffffffffffffffffffffffff021916908373ffffffffffffffffffffffffffffffffffffffff1602179055508173ffffffffffffffffffffffffffffffffffffffff168173ffffffffffffffffffffffffffffffffffffffff167f8be0079c531659141344cd1fd0a4f28419497f9722a3daafe3b4186f6b6457e060405160405180910390a35050565b600073ffffffffffffffffffffffffffffffffffffffff168273ffffffffffffffffffffffffffffffffffffffff1603620002b45760006040517fec442f05000000000000000000000000000000000000000000000000000000008152600401620002ab919062000990565b60405180910390fd5b620002c860008383620002cc60201b60201c565b5050565b600073ffffffffffffffffffffffffffffffffffffffff168373ffffffffffffffffffffffffffffffffffffffff1614158015620003375750600073ffffffffffffffffffffffffffffffffffffffff168273ffffffffffffffffffffffffffffffffffffffff1614155b15620003a15760006103e860095483620003529190620009dc565b6200035e919062000a56565b90506000818362000370919062000a8e565b90506200038685600084620003ba60201b60201c565b62000399858583620003ba60201b60201c565b5050620003b5565b620003b4838383620003ba60201b60201c565b5b505050565b600073ffffffffffffffffffffffffffffffffffffffff168373ffffffffffffffffffffffffffffffffffffffff16036200041057806002600082825462000403919062000ac9565b92505081905550620004e6565b60008060008573ffffffffffffffffffffffffffffffffffffffff1673ffffffffffffffffffffffffffffffffffffffff168152602001908152602001600020549050818110156200049f578381836040517fe450d38c000000000000000000000000000000000000000000000000000000008152600401620004969392919062000b15565b60405180910390fd5b8181036000808673ffffffffffffffffffffffffffffffffffffffff1673ffffffffffffffffffffffffffffffffffffffff16815260200190815260200160002081905550505b600073ffffffffffffffffffffffffffffffffffffffff168273ffffffffffffffffffffffffffffffffffffffff16036200053157806002600082825403925050819055506200057e565b806000808473ffffffffffffffffffffffffffffffffffffffff1673ffffffffffffffffffffffffffffffffffffffff168152602001908152602001600020600082825401925050819055505b8173ffffffffffffffffffffffffffffffffffffffff168373ffffffffffffffffffffffffffffffffffffffff167fddf252ad1be2c89b69c2b068fc378daa952ba7f163c4a11628f55a4df523b3ef83604051620005dd919062000b52565b60405180910390a3505050565b600081519050919050565b7f4e487b7100000000000000000000000000000000000000000000000000000000600052604160045260246000fd5b7f4e487b7100000000000000000000000000000000000000000000000000000000600052602260045260246000fd5b600060028204905060018216806200066c57607f821691505b60208210810362000682576200068162000624565b5b50919050565b60008190508160005260206000209050919050565b60006020601f8301049050919050565b600082821b905092915050565b600060088302620006ec7fffffffffffffffffffffffffffffffffffffffffffffffffffffffffffffffff82620006ad565b620006f88683620006ad565b95508019841693508086168417925050509392505050565b6000819050919050565b6000819050919050565b6000620007456200073f620007398462000710565b6200071a565b62000710565b9050919050565b6000819050919050565b620007618362000724565b6200077962000770826200074c565b848454620006ba565b825550505050565b600090565b6200079062000781565b6200079d81848462000756565b505050565b5b81811015620007c557620007b960008262000786565b600181019050620007a3565b5050565b601f8211156200081457620007de8162000688565b620007e9846200069d565b81016020851015620007f9578190505b6200081162000808856200069d565b830182620007a2565b50505b505050565b600082821c905092915050565b6000620008396000198460080262000819565b1980831691505092915050565b600062000854838362000826565b9150826002028217905092915050565b6200086f82620005ea565b67ffffffffffffffff8111156200088b576200088a620005f5565b5b62000897825462000653565b620008a4828285620007c9565b600060209050601f831160018114620008dc5760008415620008c7578287015190505b620008d3858262000846565b86555062000943565b601f198416620008ec8662000688565b60005b828110156200091657848901518255600182019150602085019450602081019050620008ef565b8683101562000936578489015162000932601f89168262000826565b8355505b6001600288020188555050505b505050505050565b600073ffffffffffffffffffffffffffffffffffffffff82169050919050565b600062000978826200094b565b9050919050565b6200098a816200096b565b82525050565b6000602082019050620009a760008301846200097f565b92915050565b7f4e487b7100000000000000000000000000000000000000000000000000000000600052601160045260246000fd5b6000620009e98262000710565b9150620009f68362000710565b925082820262000a068162000710565b9150828204841483151762000a205762000a1f620009ad565b5b5092915050565b7f4e487b7100000000000000000000000000000000000000000000000000000000600052601260045260246000fd5b600062000a638262000710565b915062000a708362000710565b92508262000a835762000a8262000a27565b5b828204905092915050565b600062000a9b8262000710565b915062000aa88362000710565b925082820390508181111562000ac35762000ac2620009ad565b5b92915050565b600062000ad68262000710565b915062000ae38362000710565b925082820190508082111562000afe5762000afd620009ad565b5b92915050565b62000b0f8162000710565b82525050565b600060608201905062000b2c60008301866200097f565b62000b3b602083018562000b04565b62000b4a604083018462000b04565b949350505050565b600060208201905062000b69600083018462000b04565b92915050565b6115978062000b7f6000396000f3fe608060405234801561001057600080fd5b506004361061010b5760003560e01c8063715018a6116100a2578063bed9985011610071578063bed99850146102ac578063d5abeb01146102ca578063dd62ed3e146102e8578063f2fde38b14610318578063f66e2ade146103345761010b565b8063715018a6146102365780638da5cb5b1461024057806395d89b411461025e578063a9059cbb1461027c5761010b565b8063313ce567116100de578063313ce567146101ac578063439af45e146101ca5780635b3f9c42146101e857806370a08231146102065761010b565b806306fdde0314610110578063095ea7b31461012e57806318160ddd1461015e57806323b872dd1461017c575b600080fd5b610118610350565b604051610125919061103d565b60405180910390f35b610148600480360381019061014391906110f8565b6103e2565b6040516101559190611153565b60405180910390f35b610166610405565b604051610173919061117d565b60405180910390f35b61019660048036038101906101919190611198565b61040f565b6040516101a39190611153565b60405180910390f35b6101b461043e565b6040516101c19190611207565b60405180910390f35b6101d2610447565b6040516101df919061117d565b60405180910390f35b6101f061044d565b6040516101fd919061117d565b60405180910390f35b610220600480360381019061021b9190611222565b610453565b60405161022d919061117d565b60405180910390f35b61023e61049b565b005b6102486104af565b604051610255919061125e565b60405180910390f35b6102666104d9565b604051610273919061103d565b60405180910390f35b610296600480360381019061029191906110f8565b61056b565b6040516102a39190611153565b60405180910390f35b6102b461058e565b6040516102c1919061117d565b60405180910390f35b6102d2610594565b6040516102df919061117d565b60405180910390f35b61030260048036038101906102fd9190611279565b61059a565b60405161030f919061117d565b60405180910390f35b610332600480360381019061032d9190611222565b610621565b005b61034e60048036038101906103499190611222565b6106a7565b005b60606003805461035f906112e8565b80601f016020809104026020016040519081016040528092919081815260200182805461038b906112e8565b80156103d85780601f106103ad576101008083540402835291602001916103d8565b820191906000526020600020905b8154815290600101906020018083116103bb57829003601f168201915b5050505050905090565b6000806103ed610772565b90506103fa81858561077a565b600191505092915050565b6000600254905090565b60008061041a610772565b905061042785828561078c565b610432858585610821565b60019150509392505050565b60006012905090565b60085481565b60075481565b60008060008373ffffffffffffffffffffffffffffffffffffffff1673ffffffffffffffffffffffffffffffffffffffff168152602001908152602001600020549050919050565b6104a3610915565b6104ad600061099c565b565b6000600560009054906101000a900473ffffffffffffffffffffffffffffffffffffffff16905090565b6060600480546104e8906112e8565b80601f0160208091040260200160405190810160405280929190818152602001828054610514906112e8565b80156105615780601f1061053657610100808354040283529160200191610561565b820191906000526020600020905b81548152906001019060200180831161054457829003601f168201915b5050505050905090565b600080610576610772565b9050610583818585610821565b600191505092915050565b60095481565b60065481565b6000600160008473ffffffffffffffffffffffffffffffffffffffff1673ffffffffffffffffffffffffffffffffffffffff16815260200190815260200160002060008373ffffffffffffffffffffffffffffffffffffffff1673ffffffffffffffffffffffffffffffffffffffff16815260200190815260200160002054905092915050565b610629610915565b600073ffffffffffffffffffffffffffffffffffffffff168173ffffffffffffffffffffffffffffffffffffffff160361069b5760006040517f1e4fbdf7000000000000000000000000000000000000000000000000000000008152600401610692919061125e565b60405180910390fd5b6106a48161099c565b50565b6106af610915565b6006546007546106bd610405565b6106c79190611348565b1115610708576040517f08c379a00000000000000000000000000000000000000000000000000000000081526004016106ff906113c8565b60405180910390fd5b6301e1338060085461071a9190611348565b42101561075c576040517f08c379a000000000000000000000000000000000000000000000000000000000815260040161075390611434565b60405180910390fd5b61076881600754610a62565b4260088190555050565b600033905090565b6107878383836001610ae4565b505050565b6000610798848461059a565b90507fffffffffffffffffffffffffffffffffffffffffffffffffffffffffffffffff81101561081b578181101561080b578281836040517ffb8f41b200000000000000000000000000000000000000000000000000000000815260040161080293929190611454565b60405180910390fd5b61081a84848484036000610ae4565b5b50505050565b600073ffffffffffffffffffffffffffffffffffffffff168373ffffffffffffffffffffffffffffffffffffffff16036108935760006040517f96c6fd1e00000000000000000000000000000000000000000000000000000000815260040161088a919061125e565b60405180910390fd5b600073ffffffffffffffffffffffffffffffffffffffff168273ffffffffffffffffffffffffffffffffffffffff16036109055760006040517fec442f050000000000000000000000000000000000000000000000000000000081526004016108fc919061125e565b60405180910390fd5b610910838383610cbb565b505050565b61091d610772565b73ffffffffffffffffffffffffffffffffffffffff1661093b6104af565b73ffffffffffffffffffffffffffffffffffffffff161461099a5761095e610772565b6040517f118cdaa7000000000000000000000000000000000000000000000000000000008152600401610991919061125e565b60405180910390fd5b565b6000600560009054906101000a900473ffffffffffffffffffffffffffffffffffffffff16905081600560006101000a81548173ffffffffffffffffffffffffffffffffffffffff021916908373ffffffffffffffffffffffffffffffffffffffff1602179055508173ffffffffffffffffffffffffffffffffffffffff168173ffffffffffffffffffffffffffffffffffffffff167f8be0079c531659141344cd1fd0a4f28419497f9722a3daafe3b4186f6b6457e060405160405180910390a35050565b600073ffffffffffffffffffffffffffffffffffffffff168273ffffffffffffffffffffffffffffffffffffffff1603610ad45760006040517fec442f05000000000000000000000000000000000000000000000000000000008152600401610acb919061125e565b60405180910390fd5b610ae060008383610cbb565b5050565b600073ffffffffffffffffffffffffffffffffffffffff168473ffffffffffffffffffffffffffffffffffffffff1603610b565760006040517fe602df05000000000000000000000000000000000000000000000000000000008152600401610b4d919061125e565b60405180910390fd5b600073ffffffffffffffffffffffffffffffffffffffff168373ffffffffffffffffffffffffffffffffffffffff1603610bc85760006040517f94280d62000000000000000000000000000000000000000000000000000000008152600401610bbf919061125e565b60405180910390fd5b81600160008673ffffffffffffffffffffffffffffffffffffffff1673ffffffffffffffffffffffffffffffffffffffff16815260200190815260200160002060008573ffffffffffffffffffffffffffffffffffffffff1673ffffffffffffffffffffffffffffffffffffffff168152602001908152602001600020819055508015610cb5578273ffffffffffffffffffffffffffffffffffffffff168473ffffffffffffffffffffffffffffffffffffffff167f8c5be1e5ebec7d5bd14f71427d1e84f3dd0314c0f7b2291e5b200ac8c7c3b92584604051610cac919061117d565b60405180910390a35b50505050565b600073ffffffffffffffffffffffffffffffffffffffff168373ffffffffffffffffffffffffffffffffffffffff1614158015610d255750600073ffffffffffffffffffffffffffffffffffffffff168273ffffffffffffffffffffffffffffffffffffffff1614155b15610d775760006103e860095483610d3d919061148b565b610d4791906114fc565b905060008183610d57919061152d565b9050610d6585600084610d88565b610d70858583610d88565b5050610d83565b610d82838383610d88565b5b505050565b600073ffffffffffffffffffffffffffffffffffffffff168373ffffffffffffffffffffffffffffffffffffffff1603610dda578060026000828254610dce9190611348565b92505081905550610ead565b60008060008573ffffffffffffffffffffffffffffffffffffffff1673ffffffffffffffffffffffffffffffffffffffff16815260200190815260200160002054905081811015610e66578381836040517fe450d38c000000000000000000000000000000000000000000000000000000008152600401610e5d93929190611454565b60405180910390fd5b8181036000808673ffffffffffffffffffffffffffffffffffffffff1673ffffffffffffffffffffffffffffffffffffffff16815260200190815260200160002081905550505b600073ffffffffffffffffffffffffffffffffffffffff168273ffffffffffffffffffffffffffffffffffffffff1603610ef65780600260008282540392505081905550610f43565b806000808473ffffffffffffffffffffffffffffffffffffffff1673ffffffffffffffffffffffffffffffffffffffff168152602001908152602001600020600082825401925050819055505b8173ffffffffffffffffffffffffffffffffffffffff168373ffffffffffffffffffffffffffffffffffffffff167fddf252ad1be2c89b69c2b068fc378daa952ba7f163c4a11628f55a4df523b3ef83604051610fa0919061117d565b60405180910390a3505050565b600081519050919050565b600082825260208201905092915050565b60005b83811015610fe7578082015181840152602081019050610fcc565b60008484015250505050565b6000601f19601f8301169050919050565b600061100f82610fad565b6110198185610fb8565b9350611029818560208601610fc9565b61103281610ff3565b840191505092915050565b600060208201905081810360008301526110578184611004565b905092915050565b600080fd5b600073ffffffffffffffffffffffffffffffffffffffff82169050919050565b600061108f82611064565b9050919050565b61109f81611084565b81146110aa57600080fd5b50565b6000813590506110bc81611096565b92915050565b6000819050919050565b6110d5816110c2565b81146110e057600080fd5b50565b6000813590506110f2816110cc565b92915050565b6000806040838503121561110f5761110e61105f565b5b600061111d858286016110ad565b925050602061112e858286016110e3565b9150509250929050565b60008115159050919050565b61114d81611138565b82525050565b60006020820190506111686000830184611144565b92915050565b611177816110c2565b82525050565b6000602082019050611192600083018461116e565b92915050565b6000806000606084860312156111b1576111b061105f565b5b60006111bf868287016110ad565b93505060206111d0868287016110ad565b92505060406111e1868287016110e3565b9150509250925092565b600060ff82169050919050565b611201816111eb565b82525050565b600060208201905061121c60008301846111f8565b92915050565b6000602082840312156112385761123761105f565b5b6000611246848285016110ad565b91505092915050565b61125881611084565b82525050565b6000602082019050611273600083018461124f565b92915050565b600080604083850312156112905761128f61105f565b5b600061129e858286016110ad565b92505060206112af858286016110ad565b9150509250929050565b7f4e487b7100000000000000000000000000000000000000000000000000000000600052602260045260246000fd5b6000600282049050600182168061130057607f821691505b602082108103611313576113126112b9565b5b50919050565b7f4e487b7100000000000000000000000000000000000000000000000000000000600052601160045260246000fd5b6000611353826110c2565b915061135e836110c2565b925082820190508082111561137657611375611319565b5b92915050565b7f4d617820737570706c7920657863656564656400000000000000000000000000600082015250565b60006113b2601383610fb8565b91506113bd8261137c565b602082019050919050565b600060208201905081810360008301526113e1816113a5565b9050919050565b7f456d697373696f6e206e6f742072656164790000000000000000000000000000600082015250565b600061141e601283610fb8565b9150611429826113e8565b602082019050919050565b6000602082019050818103600083015261144d81611411565b9050919050565b6000606082019050611469600083018661124f565b611476602083018561116e565b611483604083018461116e565b949350505050565b6000611496826110c2565b91506114a1836110c2565b92508282026114af816110c2565b915082820484148315176114c6576114c5611319565b5b5092915050565b7f4e487b7100000000000000000000000000000000000000000000000000000000600052601260045260246000fd5b6000611507826110c2565b9150611512836110c2565b925082611522576115216114cd565b5b828204905092915050565b6000611538826110c2565b9150611543836110c2565b925082820390508181111561155b5761155a611319565b5b9291505056fea2646970667358221220ed844e206c8657f0e07ff362024cda565d9dcd016ea584566b0b9bd098d20af864736f6c63430008140033",
  "linkReferences": {},
  "deployedLinkReferences": {}
}