{
  "_format": "hh-sol-artifact-1",
  "contractName": "DonaxBadgeNFT",
  "sourceName": "contracts/donaxbadgenft.sol",
  "abi": [
    {
      "inputs": [],
      "stateMutability": "nonpayable",
      "type": "constructor"
    },
    {
      "inputs": [
        {
          "internalType": "address",
          "name": "sender",
          "type": "address"
        },
        {
          "internalType": "uint256",
          "name": "tokenId",
          "type": "uint256"
        },
        {
          "internalType": "address",
          "name": "owner",
          "type": "address"
        }
      ],
      "name": "ERC721IncorrectOwner",
      "type": "error"
    },
    {
      "inputs": [
        {
          "internalType": "address",
          "name": "operator",
          "type": "address"
        },
        {
          "internalType": "uint256",
          "name": "tokenId",
          "type": "uint256"
        }
      ],
      "name": "ERC721InsufficientApproval",
      "type": "error"
    },
    {
      "inputs": [
        {
          "internalType": "address",
          "name": "approver",
          "type": "address"
        }
      ],
      "name": "ERC721InvalidApprover",
      "type": "error"
    },
    {
      "inputs": [
        {
          "internalType": "address",
          "name": "operator",
          "type": "address"
        }
      ],
      "name": "ERC721InvalidOperator",
      "type": "error"
    },
    {
      "inputs": [
        {
          "internalType": "address",
          "name": "owner",
          "type": "address"
        }
      ],
      "name": "ERC721InvalidOwner",
      "type": "error"
    },
    {
      "inputs": [
        {
          "internalType": "address",
          "name": "receiver",
          "type": "address"
        }
      ],
      "name": "ERC721InvalidReceiver",
      "type": "error"
    },
    {
      "inputs": [
        {
          "internalType": "address",
          "name": "sender",
          "type": "address"
        }
      ],
      "name": "ERC721InvalidSender",
      "type": "error"
    },
    {
      "inputs": [
        {
          "internalType": "uint256",
          "name": "tokenId",
          "type": "uint256"
        }
      ],
      "name": "ERC721NonexistentToken",
      "type": "error"
    },
    {
      "inputs": [
        {
          "internalType": "address",
          "name": "owner",
          "type": "address"
        }
      ],
      "name": "OwnableInvalidOwner",
      "type": "error"
    },
    {
      "inputs": [
        {
          "internalType": "address",
          "name": "account",
          "type": "address"
        }
      ],
      "name": "OwnableUnauthorizedAccount",
      "type": "error"
    },
    {
      "anonymous": false,
      "inputs": [
        {
          "indexed": true,
          "internalType": "address",
          "name": "owner",
          "type": "address"
        },
        {
          "indexed": true,
          "internalType": "address",
          "name": "approved",
          "type": "address"
        },
        {
          "indexed": true,
          "internalType": "uint256",
          "name": "tokenId",
          "type": "uint256"
        }
      ],
      "name": "Approval",
      "type": "event"
    },
    {
      "anonymous": false,
      "inputs": [
        {
          "indexed": true,
          "internalType": "address",
          "name": "owner",
          "type": "address"
        },
        {
          "indexed": true,
          "internalType": "address",
          "name": "operator",
          "type": "address"
        },
        {
          "indexed": false,
          "internalType": "bool",
          "name": "approved",
          "type": "bool"
        }
      ],
      "name": "ApprovalForAll",
      "type": "event"
    },
    {
      "anonymous": false,
      "inputs": [
        {
          "indexed": false,
          "internalType": "uint256",
          "name": "_fromTokenId",
          "type": "uint256"
        },
        {
          "indexed": false,
          "internalType": "uint256",
          "name": "_toTokenId",
          "type": "uint256"
        }
      ],
      "name": "BatchMetadataUpdate",
      "type": "event"
    },
    {
      "anonymous": false,
      "inputs": [
        {
          "indexed": false,
          "internalType": "uint256",
          "name": "_tokenId",
          "type": "uint256"
        }
      ],
      "name": "MetadataUpdate",
      "type": "event"
    },
    {
      "anonymous": false,
      "inputs": [
        {
          "indexed": true,
          "internalType": "address",
          "name": "previousOwner",
          "type": "address"
        },
        {
          "indexed": true,
          "internalType": "address",
          "name": "newOwner",
          "type": "address"
        }
      ],
      "name": "OwnershipTransferred",
      "type": "event"
    },
    {
      "anonymous": false,
      "inputs": [
        {
          "indexed": true,
          "internalType": "address",
          "name": "from",
          "type": "address"
        },
        {
          "indexed": true,
          "internalType": "address",
          "name": "to",
          "type": "address"
        },
        {
          "indexed": true,
          "internalType": "uint256",
          "name": "tokenId",
          "type": "uint256"
        }
      ],
      "name": "Transfer",
      "type": "event"
    },
    {
      "inputs": [
        {
          "internalType": "address",
          "name": "to",
          "type": "address"
        },
        {
          "internalType": "uint256",
          "name": "tokenId",
          "type": "uint256"
        }
      ],
      "name": "approve",
      "outputs": [],
      "stateMutability": "nonpayable",
      "type": "function"
    },
    {
      "inputs": [
        {
          "internalType": "address",
          "name": "owner",
          "type": "address"
        }
      ],
      "name": "balanceOf",
      "outputs": [
        {
          "internalType": "uint256",
          "name": "",
          "type": "uint256"
        }
      ],
      "stateMutability": "view",
      "type": "function"
    },
    {
      "inputs": [
        {
          "internalType": "uint256",
          "name": "tokenId",
          "type": "uint256"
        }
      ],
      "name": "getApproved",
      "outputs": [
        {
          "internalType": "address",
          "name": "",
          "type": "address"
        }
      ],
      "stateMutability": "view",
      "type": "function"
    },
    {
      "inputs": [
        {
          "internalType": "address",
          "name": "owner",
          "type": "address"
        },
        {
          "internalType": "address",
          "name": "operator",
          "type": "address"
        }
      ],
      "name": "isApprovedForAll",
      "outputs": [
        {
          "internalType": "bool",
          "name": "",
          "type": "bool"
        }
      ],
      "stateMutability": "view",
      "type": "function"
    },
    {
      "inputs": [
        {
          "internalType": "address",
          "name": "recipient",
          "type": "address"
        },
        {
          "internalType": "string",
          "name": "metadataURI",
          "type": "string"
        }
      ],
      "name": "mintBadge",
      "outputs": [
        {
          "internalType": "uint256",
          "name": "",
          "type": "uint256"
        }
      ],
      "stateMutability": "nonpayable",
      "type": "function"
    },
    {
      "inputs": [],
      "name": "name",
      "outputs": [
        {
          "internalType": "string",
          "name": "",
          "type": "string"
        }
      ],
      "stateMutability": "view",
      "type": "function"
    },
    {
      "inputs": [],
      "name": "owner",
      "outputs": [
        {
          "internalType": "address",
          "name": "",
          "type": "address"
        }
      ],
      "stateMutability": "view",
      "type": "function"
    },
    {
      "inputs": [
        {
          "internalType": "uint256",
          "name": "tokenId",
          "type": "uint256"
        }
      ],
      "name": "ownerOf",
      "outputs": [
        {
          "internalType": "address",
          "name": "",
          "type": "address"
        }
      ],
      "stateMutability": "view",
      "type": "function"
    },
    {
      "inputs": [],
      "name": "renounceOwnership",
      "outputs": [],
      "stateMutability": "nonpayable",
      "type": "function"
    },
    {
      "inputs": [
        {
          "internalType": "address",
          "name": "from",
          "type": "address"
        },
        {
          "internalType": "address",
          "name": "to",
          "type": "address"
        },
        {
          "internalType": "uint256",
          "name": "tokenId",
          "type": "uint256"
        }
      ],
      "name": "safeTransferFrom",
      "outputs": [],
      "stateMutability": "nonpayable",
      "type": "function"
    },
    {
      "inputs": [
        {
          "internalType": "address",
          "name": "from",
          "type": "address"
        },
        {
          "internalType": "address",
          "name": "to",
          "type": "address"
        },
        {
          "internalType": "uint256",
          "name": "tokenId",
          "type": "uint256"
        },
        {
          "internalType": "bytes",
          "name": "data",
          "type": "bytes"
        }
      ],
      "name": "safeTransferFrom",
      "outputs": [],
      "stateMutability": "nonpayable",
      "type": "function"
    },
    {
      "inputs": [
        {
          "internalType": "address",
          "name": "operator",
          "type": "address"
        },
        {
          "internalType": "bool",
          "name": "approved",
          "type": "bool"
        }
      ],
      "name": "setApprovalForAll",
      "outputs": [],
      "stateMutability": "nonpayable",
      "type": "function"
    },
    {
      "inputs": [
        {
          "internalType": "bytes4",
          "name": "interfaceId",
          "type": "bytes4"
        }
      ],
      "name": "supportsInterface",
      "outputs": [
        {
          "internalType": "bool",
          "name": "",
          "type": "bool"
        }
      ],
      "stateMutability": "view",
      "type": "function"
    },
    {
      "inputs": [],
      "name": "symbol",
      "outputs": [
        {
          "internalType": "string",
          "name": "",
          "type": "string"
        }
      ],
      "stateMutability": "view",
      "type": "function"
    },
    {
      "inputs": [
        {
          "internalType": "uint256",
          "name": "tokenId",
          "type": "uint256"
        }
      ],
      "name": "tokenURI",
      "outputs": [
        {
          "internalType": "string",
          "name": "",
          "type": "string"
        }
      ],
      "stateMutability": "view",
      "type": "function"
    },
    {
      "inputs": [
        {
          "internalType": "address",
          "name": "from",
          "type": "address"
        },
        {
          "internalType": "address",
          "name": "to",
          "type": "address"
        },
        {
          "internalType": "uint256",
          "name": "tokenId",
          "type": "uint256"
        }
      ],
      "name": "transferFrom",
      "outputs": [],
      "stateMutability": "nonpayable",
      "type": "function"
    },
    {
      "inputs": [
        {
          "internalType": "address",
          "name": "newOwner",
          "type": "address"
        }
      ],
      "name": "transferOwnership",
      "outputs": [],
      "stateMutability": "nonpayable",
      "type": "function"
    }
  ],
  "bytecode": "0x60806040523480156200001157600080fd5b50336040518060400160405280600a81526020017f446f6e61784261646765000000000000000000000000000000000000000000008152506040518060400160405280600681526020017f4442414447450000000000000000000000000000000000000000000000000000815250816000908162000090919062000472565b508060019081620000a2919062000472565b505050600073ffffffffffffffffffffffffffffffffffffffff168173ffffffffffffffffffffffffffffffffffffffff16036200011a5760006040517f1e4fbdf70000000000000000000000000000000000000000000000000000000081526004016200011191906200059e565b60405180910390fd5b6200012b816200013260201b60201c565b50620005bb565b6000600760009054906101000a900473ffffffffffffffffffffffffffffffffffffffff16905081600760006101000a81548173ffffffffffffffffffffffffffffffffffffffff021916908373ffffffffffffffffffffffffffffffffffffffff1602179055508173ffffffffffffffffffffffffffffffffffffffff168173ffffffffffffffffffffffffffffffffffffffff167f8be0079c531659141344cd1fd0a4f28419497f9722a3daafe3b4186f6b6457e060405160405180910390a35050565b600081519050919050565b7f4e487b7100000000000000000000000000000000000000000000000000000000600052604160045260246000fd5b7f4e487b7100000000000000000000000000000000000000000000000000000000600052602260045260246000fd5b600060028204905060018216806200027a57607f821691505b60208210810362000290576200028f62000232565b5b50919050565b60008190508160005260206000209050919050565b60006020601f8301049050919050565b600082821b905092915050565b600060088302620002fa7fffffffffffffffffffffffffffffffffffffffffffffffffffffffffffffffff82620002bb565b620003068683620002bb565b95508019841693508086168417925050509392505050565b6000819050919050565b6000819050919050565b6000620003536200034d62000347846200031e565b62000328565b6200031e565b9050919050565b6000819050919050565b6200036f8362000332565b620003876200037e826200035a565b848454620002c8565b825550505050565b600090565b6200039e6200038f565b620003ab81848462000364565b505050565b5b81811015620003d357620003c760008262000394565b600181019050620003b1565b5050565b601f8211156200042257620003ec8162000296565b620003f784620002ab565b8101602085101562000407578190505b6200041f6200041685620002ab565b830182620003b0565b50505b505050565b600082821c905092915050565b6000620004476000198460080262000427565b1980831691505092915050565b600062000462838362000434565b9150826002028217905092915050565b6200047d82620001f8565b67ffffffffffffffff81111562000499576200049862000203565b5b620004a5825462000261565b620004b2828285620003d7565b600060209050601f831160018114620004ea5760008415620004d5578287015190505b620004e1858262000454565b86555062000551565b601f198416620004fa8662000296565b60005b828110156200052457848901518255600182019150602085019450602081019050620004fd565b8683101562000544578489015162000540601f89168262000434565b8355505b6001600288020188555050505b505050505050565b600073ffffffffffffffffffffffffffffffffffffffff82169050919050565b6000620005868262000559565b9050919050565b620005988162000579565b82525050565b6000602082019050620005b560008301846200058d565b92915050565b61264180620005cb6000396000f3fe608060405234801561001057600080fd5b506004361061010b5760003560e01c806370a08231116100a2578063a22cb46511610071578063a22cb465146102b8578063b88d4fde146102d4578063c87b56dd146102f0578063e985e9c514610320578063f2fde38b146103505761010b565b806370a0823114610242578063715018a6146102725780638da5cb5b1461027c57806395d89b411461029a5761010b565b806323b872dd116100de57806323b872dd146101aa57806342842e0e146101c65780636352211e146101e25780636b2bafc8146102125761010b565b806301ffc9a71461011057806306fdde0314610140578063081812fc1461015e578063095ea7b31461018e575b600080fd5b61012a60048036038101906101259190611a99565b61036c565b6040516101379190611ae1565b60405180910390f35b6101486103cd565b6040516101559190611b8c565b60405180910390f35b61017860048036038101906101739190611be4565b61045f565b6040516101859190611c52565b60405180910390f35b6101a860048036038101906101a39190611c99565b61047b565b005b6101c460048036038101906101bf9190611cd9565b610491565b005b6101e060048036038101906101db9190611cd9565b610593565b005b6101fc60048036038101906101f79190611be4565b6105b3565b6040516102099190611c52565b60405180910390f35b61022c60048036038101906102279190611e61565b6105c5565b6040516102399190611ecc565b60405180910390f35b61025c60048036038101906102579190611ee7565b61060c565b6040516102699190611ecc565b60405180910390f35b61027a6106c6565b005b6102846106da565b6040516102919190611c52565b60405180910390f35b6102a2610704565b6040516102af9190611b8c565b60405180910390f35b6102d260048036038101906102cd9190611f40565b610796565b005b6102ee60048036038101906102e99190612021565b6107ac565b005b61030a60048036038101906103059190611be4565b6107d1565b6040516103179190611b8c565b60405180910390f35b61033a600480360381019061033591906120a4565b6108e4565b6040516103479190611ae1565b60405180910390f35b61036a60048036038101906103659190611ee7565b610978565b005b6000634906490660e01b7bffffffffffffffffffffffffffffffffffffffffffffffffffffffff1916827bffffffffffffffffffffffffffffffffffffffffffffffffffffffff191614806103c657506103c5826109fe565b5b9050919050565b6060600080546103dc90612113565b80601f016020809104026020016040519081016040528092919081815260200182805461040890612113565b80156104555780601f1061042a57610100808354040283529160200191610455565b820191906000526020600020905b81548152906001019060200180831161043857829003601f168201915b5050505050905090565b600061046a82610ae0565b5061047482610b68565b9050919050565b61048d8282610488610ba5565b610bad565b5050565b600073ffffffffffffffffffffffffffffffffffffffff168273ffffffffffffffffffffffffffffffffffffffff16036105035760006040517f64a0ae920000000000000000000000000000000000000000000000000000000081526004016104fa9190611c52565b60405180910390fd5b60006105178383610512610ba5565b610bbf565b90508373ffffffffffffffffffffffffffffffffffffffff168173ffffffffffffffffffffffffffffffffffffffff161461058d578382826040517f64283d7b00000000000000000000000000000000000000000000000000000000815260040161058493929190612144565b60405180910390fd5b50505050565b6105ae838383604051806020016040528060008152506107ac565b505050565b60006105be82610ae0565b9050919050565b60006105cf610dd9565b600860008154809291906105e2906121aa565b9190505550600060085490506105f88482610e60565b6106028184610f59565b8091505092915050565b60008073ffffffffffffffffffffffffffffffffffffffff168273ffffffffffffffffffffffffffffffffffffffff160361067f5760006040517f89c62b640000000000000000000000000000000000000000000000000000000081526004016106769190611c52565b60405180910390fd5b600360008373ffffffffffffffffffffffffffffffffffffffff1673ffffffffffffffffffffffffffffffffffffffff168152602001908152602001600020549050919050565b6106ce610dd9565b6106d86000610fb5565b565b6000600760009054906101000a900473ffffffffffffffffffffffffffffffffffffffff16905090565b60606001805461071390612113565b80601f016020809104026020016040519081016040528092919081815260200182805461073f90612113565b801561078c5780601f106107615761010080835404028352916020019161078c565b820191906000526020600020905b81548152906001019060200180831161076f57829003601f168201915b5050505050905090565b6107a86107a1610ba5565b838361107b565b5050565b6107b7848484610491565b6107cb6107c2610ba5565b858585856111ea565b50505050565b60606107dc82610ae0565b5060006006600084815260200190815260200160002080546107fd90612113565b80601f016020809104026020016040519081016040528092919081815260200182805461082990612113565b80156108765780601f1061084b57610100808354040283529160200191610876565b820191906000526020600020905b81548152906001019060200180831161085957829003601f168201915b50505050509050600061088761139b565b9050600081510361089c5781925050506108df565b6000825111156108d15780826040516020016108b992919061222e565b604051602081830303815290604052925050506108df565b6108da846113b2565b925050505b919050565b6000600560008473ffffffffffffffffffffffffffffffffffffffff1673ffffffffffffffffffffffffffffffffffffffff16815260200190815260200160002060008373ffffffffffffffffffffffffffffffffffffffff1673ffffffffffffffffffffffffffffffffffffffff16815260200190815260200160002060009054906101000a900460ff16905092915050565b610980610dd9565b600073ffffffffffffffffffffffffffffffffffffffff168173ffffffffffffffffffffffffffffffffffffffff16036109f25760006040517f1e4fbdf70000000000000000000000000000000000000000000000000000000081526004016109e99190611c52565b60405180910390fd5b6109fb81610fb5565b50565b60007f80ac58cd000000000000000000000000000000000000000000000000000000007bffffffffffffffffffffffffffffffffffffffffffffffffffffffff1916827bffffffffffffffffffffffffffffffffffffffffffffffffffffffff19161480610ac957507f5b5e139f000000000000000000000000000000000000000000000000000000007bffffffffffffffffffffffffffffffffffffffffffffffffffffffff1916827bffffffffffffffffffffffffffffffffffffffffffffffffffffffff1916145b80610ad95750610ad88261141b565b5b9050919050565b600080610aec83611485565b9050600073ffffffffffffffffffffffffffffffffffffffff168173ffffffffffffffffffffffffffffffffffffffff1603610b5f57826040517f7e273289000000000000000000000000000000000000000000000000000000008152600401610b569190611ecc565b60405180910390fd5b80915050919050565b60006004600083815260200190815260200160002060009054906101000a900473ffffffffffffffffffffffffffffffffffffffff169050919050565b600033905090565b610bba83838360016114c2565b505050565b600080610bcb84611485565b9050600073ffffffffffffffffffffffffffffffffffffffff168373ffffffffffffffffffffffffffffffffffffffff1614610c0d57610c0c818486611687565b5b600073ffffffffffffffffffffffffffffffffffffffff168173ffffffffffffffffffffffffffffffffffffffff1614610c9e57610c4f6000856000806114c2565b6001600360008373ffffffffffffffffffffffffffffffffffffffff1673ffffffffffffffffffffffffffffffffffffffff168152602001908152602001600020600082825403925050819055505b600073ffffffffffffffffffffffffffffffffffffffff168573ffffffffffffffffffffffffffffffffffffffff1614610d21576001600360008773ffffffffffffffffffffffffffffffffffffffff1673ffffffffffffffffffffffffffffffffffffffff168152602001908152602001600020600082825401925050819055505b846002600086815260200190815260200160002060006101000a81548173ffffffffffffffffffffffffffffffffffffffff021916908373ffffffffffffffffffffffffffffffffffffffff160217905550838573ffffffffffffffffffffffffffffffffffffffff168273ffffffffffffffffffffffffffffffffffffffff167fddf252ad1be2c89b69c2b068fc378daa952ba7f163c4a11628f55a4df523b3ef60405160405180910390a4809150509392505050565b610de1610ba5565b73ffffffffffffffffffffffffffffffffffffffff16610dff6106da565b73ffffffffffffffffffffffffffffffffffffffff1614610e5e57610e22610ba5565b6040517f118cdaa7000000000000000000000000000000000000000000000000000000008152600401610e559190611c52565b60405180910390fd5b565b600073ffffffffffffffffffffffffffffffffffffffff168273ffffffffffffffffffffffffffffffffffffffff1603610ed25760006040517f64a0ae92000000000000000000000000000000000000000000000000000000008152600401610ec99190611c52565b60405180910390fd5b6000610ee083836000610bbf565b9050600073ffffffffffffffffffffffffffffffffffffffff168173ffffffffffffffffffffffffffffffffffffffff1614610f545760006040517f73c6ac6e000000000000000000000000000000000000000000000000000000008152600401610f4b9190611c52565b60405180910390fd5b505050565b80600660008481526020019081526020016000209081610f7991906123fe565b507ff8e1a15aba9398e019f0b49df1a4fde98ee17ae345cb5f6b5e2c27f5033e8ce782604051610fa99190611ecc565b60405180910390a15050565b6000600760009054906101000a900473ffffffffffffffffffffffffffffffffffffffff16905081600760006101000a81548173ffffffffffffffffffffffffffffffffffffffff021916908373ffffffffffffffffffffffffffffffffffffffff1602179055508173ffffffffffffffffffffffffffffffffffffffff168173ffffffffffffffffffffffffffffffffffffffff167f8be0079c531659141344cd1fd0a4f28419497f9722a3daafe3b4186f6b6457e060405160405180910390a35050565b600073ffffffffffffffffffffffffffffffffffffffff168273ffffffffffffffffffffffffffffffffffffffff16036110ec57816040517f5b08ba180000000000000000000000000000000000000000000000000000000081526004016110e39190611c52565b60405180910390fd5b80600560008573ffffffffffffffffffffffffffffffffffffffff1673ffffffffffffffffffffffffffffffffffffffff16815260200190815260200160002060008473ffffffffffffffffffffffffffffffffffffffff1673ffffffffffffffffffffffffffffffffffffffff16815260200190815260200160002060006101000a81548160ff0219169083151502179055508173ffffffffffffffffffffffffffffffffffffffff168373ffffffffffffffffffffffffffffffffffffffff167f17307eab39ab6107e8899845ad3d59bd9653f200f220920489ca2b5937696c31836040516111dd9190611ae1565b60405180910390a3505050565b60008373ffffffffffffffffffffffffffffffffffffffff163b1115611394578273ffffffffffffffffffffffffffffffffffffffff1663150b7a02868685856040518563ffffffff1660e01b81526004016112499493929190612525565b6020604051808303816000875af192505050801561128557506040513d601f19601f820116820180604052508101906112829190612586565b60015b611309573d80600081146112b5576040519150601f19603f3d011682016040523d82523d6000602084013e6112ba565b606091505b50600081510361130157836040517f64a0ae920000000000000000000000000000000000000000000000000000000081526004016112f89190611c52565b60405180910390fd5b805181602001fd5b63150b7a0260e01b7bffffffffffffffffffffffffffffffffffffffffffffffffffffffff1916817bffffffffffffffffffffffffffffffffffffffffffffffffffffffff19161461139257836040517f64a0ae920000000000000000000000000000000000000000000000000000000081526004016113899190611c52565b60405180910390fd5b505b5050505050565b606060405180602001604052806000815250905090565b60606113bd82610ae0565b5060006113c861139b565b905060008151116113e85760405180602001604052806000815250611413565b806113f28461174b565b60405160200161140392919061222e565b6040516020818303038152906040525b915050919050565b60007f01ffc9a7000000000000000000000000000000000000000000000000000000007bffffffffffffffffffffffffffffffffffffffffffffffffffffffff1916827bffffffffffffffffffffffffffffffffffffffffffffffffffffffff1916149050919050565b60006002600083815260200190815260200160002060009054906101000a900473ffffffffffffffffffffffffffffffffffffffff169050919050565b80806114fb5750600073ffffffffffffffffffffffffffffffffffffffff168273ffffffffffffffffffffffffffffffffffffffff1614155b1561162f57600061150b84610ae0565b9050600073ffffffffffffffffffffffffffffffffffffffff168373ffffffffffffffffffffffffffffffffffffffff161415801561157657508273ffffffffffffffffffffffffffffffffffffffff168173ffffffffffffffffffffffffffffffffffffffff1614155b8015611589575061158781846108e4565b155b156115cb57826040517fa9fbf51f0000000000000000000000000000000000000000000000000000000081526004016115c29190611c52565b60405180910390fd5b811561162d57838573ffffffffffffffffffffffffffffffffffffffff168273ffffffffffffffffffffffffffffffffffffffff167f8c5be1e5ebec7d5bd14f71427d1e84f3dd0314c0f7b2291e5b200ac8c7c3b92560405160405180910390a45b505b836004600085815260200190815260200160002060006101000a81548173ffffffffffffffffffffffffffffffffffffffff021916908373ffffffffffffffffffffffffffffffffffffffff16021790555050505050565b611692838383611819565b61174657600073ffffffffffffffffffffffffffffffffffffffff168373ffffffffffffffffffffffffffffffffffffffff160361170757806040517f7e2732890000000000000000000000000000000000000000000000000000000081526004016116fe9190611ecc565b60405180910390fd5b81816040517f177e802f00000000000000000000000000000000000000000000000000000000815260040161173d9291906125b3565b60405180910390fd5b505050565b60606000600161175a846118da565b01905060008167ffffffffffffffff81111561177957611778611d36565b5b6040519080825280601f01601f1916602001820160405280156117ab5781602001600182028036833780820191505090505b509050600082602001820190505b60011561180e578080600190039150507f3031323334353637383961626364656600000000000000000000000000000000600a86061a8153600a8581611802576118016125dc565b5b049450600085036117b9575b819350505050919050565b60008073ffffffffffffffffffffffffffffffffffffffff168373ffffffffffffffffffffffffffffffffffffffff16141580156118d157508273ffffffffffffffffffffffffffffffffffffffff168473ffffffffffffffffffffffffffffffffffffffff161480611892575061189184846108e4565b5b806118d057508273ffffffffffffffffffffffffffffffffffffffff166118b883610b68565b73ffffffffffffffffffffffffffffffffffffffff16145b5b90509392505050565b600080600090507a184f03e93ff9f4daa797ed6e38ed64bf6a1f0100000000000000008310611938577a184f03e93ff9f4daa797ed6e38ed64bf6a1f010000000000000000838161192e5761192d6125dc565b5b0492506040810190505b6d04ee2d6d415b85acef81000000008310611975576d04ee2d6d415b85acef8100000000838161196b5761196a6125dc565b5b0492506020810190505b662386f26fc1000083106119a457662386f26fc10000838161199a576119996125dc565b5b0492506010810190505b6305f5e10083106119cd576305f5e10083816119c3576119c26125dc565b5b0492506008810190505b61271083106119f25761271083816119e8576119e76125dc565b5b0492506004810190505b60648310611a155760648381611a0b57611a0a6125dc565b5b0492506002810190505b600a8310611a24576001810190505b80915050919050565b6000604051905090565b600080fd5b600080fd5b60007fffffffff0000000000000000000000000000000000000000000000000000000082169050919050565b611a7681611a41565b8114611a8157600080fd5b50565b600081359050611a9381611a6d565b92915050565b600060208284031215611aaf57611aae611a37565b5b6000611abd84828501611a84565b91505092915050565b60008115159050919050565b611adb81611ac6565b82525050565b6000602082019050611af66000830184611ad2565b92915050565b600081519050919050565b600082825260208201905092915050565b60005b83811015611b36578082015181840152602081019050611b1b565b60008484015250505050565b6000601f19601f8301169050919050565b6000611b5e82611afc565b611b688185611b07565b9350611b78818560208601611b18565b611b8181611b42565b840191505092915050565b60006020820190508181036000830152611ba68184611b53565b905092915050565b6000819050919050565b611bc181611bae565b8114611bcc57600080fd5b50565b600081359050611bde81611bb8565b92915050565b600060208284031215611bfa57611bf9611a37565b5b6000611c0884828501611bcf565b91505092915050565b600073ffffffffffffffffffffffffffffffffffffffff82169050919050565b6000611c3c82611c11565b9050919050565b611c4c81611c31565b82525050565b6000602082019050611c676000830184611c43565b92915050565b611c7681611c31565b8114611c8157600080fd5b50565b600081359050611c9381611c6d565b92915050565b60008060408385031215611cb057611caf611a37565b5b6000611cbe85828601611c84565b9250506020611ccf85828601611bcf565b9150509250929050565b600080600060608486031215611cf257611cf1611a37565b5b6000611d0086828701611c84565b9350506020611d1186828701611c84565b9250506040611d2286828701611bcf565b9150509250925092565b600080fd5b600080fd5b7f4e487b7100000000000000000000000000000000000000000000000000000000600052604160045260246000fd5b611d6e82611b42565b810181811067ffffffffffffffff82111715611d8d57611d8c611d36565b5b80604052505050565b6000611da0611a2d565b9050611dac8282611d65565b919050565b600067ffffffffffffffff821115611dcc57611dcb611d36565b5b611dd582611b42565b9050602081019050919050565b82818337600083830152505050565b6000611e04611dff84611db1565b611d96565b905082815260208101848484011115611e2057611e1f611d31565b5b611e2b848285611de2565b509392505050565b600082601f830112611e4857611e47611d2c565b5b8135611e58848260208601611df1565b91505092915050565b60008060408385031215611e7857611e77611a37565b5b6000611e8685828601611c84565b925050602083013567ffffffffffffffff811115611ea757611ea6611a3c565b5b611eb385828601611e33565b9150509250929050565b611ec681611bae565b82525050565b6000602082019050611ee16000830184611ebd565b92915050565b600060208284031215611efd57611efc611a37565b5b6000611f0b84828501611c84565b91505092915050565b611f1d81611ac6565b8114611f2857600080fd5b50565b600081359050611f3a81611f14565b92915050565b60008060408385031215611f5757611f56611a37565b5b6000611f6585828601611c84565b9250506020611f7685828601611f2b565b9150509250929050565b600067ffffffffffffffff821115611f9b57611f9a611d36565b5b611fa482611b42565b9050602081019050919050565b6000611fc4611fbf84611f80565b611d96565b905082815260208101848484011115611fe057611fdf611d31565b5b611feb848285611de2565b509392505050565b600082601f83011261200857612007611d2c565b5b8135612018848260208601611fb1565b91505092915050565b6000806000806080858703121561203b5761203a611a37565b5b600061204987828801611c84565b945050602061205a87828801611c84565b935050604061206b87828801611bcf565b925050606085013567ffffffffffffffff81111561208c5761208b611a3c565b5b61209887828801611ff3565b91505092959194509250565b600080604083850312156120bb576120ba611a37565b5b60006120c985828601611c84565b92505060206120da85828601611c84565b9150509250929050565b7f4e487b7100000000000000000000000000000000000000000000000000000000600052602260045260246000fd5b6000600282049050600182168061212b57607f821691505b60208210810361213e5761213d6120e4565b5b50919050565b60006060820190506121596000830186611c43565b6121666020830185611ebd565b6121736040830184611c43565b949350505050565b7f4e487b7100000000000000000000000000000000000000000000000000000000600052601160045260246000fd5b60006121b582611bae565b91507fffffffffffffffffffffffffffffffffffffffffffffffffffffffffffffffff82036121e7576121e661217b565b5b600182019050919050565b600081905092915050565b600061220882611afc565b61221281856121f2565b9350612222818560208601611b18565b80840191505092915050565b600061223a82856121fd565b915061224682846121fd565b91508190509392505050565b60008190508160005260206000209050919050565b60006020601f8301049050919050565b600082821b905092915050565b6000600883026122b47fffffffffffffffffffffffffffffffffffffffffffffffffffffffffffffffff82612277565b6122be8683612277565b95508019841693508086168417925050509392505050565b6000819050919050565b60006122fb6122f66122f184611bae565b6122d6565b611bae565b9050919050565b6000819050919050565b612315836122e0565b61232961232182612302565b848454612284565b825550505050565b600090565b61233e612331565b61234981848461230c565b505050565b5b8181101561236d57612362600082612336565b60018101905061234f565b5050565b601f8211156123b25761238381612252565b61238c84612267565b8101602085101561239b578190505b6123af6123a785612267565b83018261234e565b50505b505050565b600082821c905092915050565b60006123d5600019846008026123b7565b1980831691505092915050565b60006123ee83836123c4565b9150826002028217905092915050565b61240782611afc565b67ffffffffffffffff8111156124205761241f611d36565b5b61242a8254612113565b612435828285612371565b600060209050601f8311600181146124685760008415612456578287015190505b61246085826123e2565b8655506124c8565b601f19841661247686612252565b60005b8281101561249e57848901518255600182019150602085019450602081019050612479565b868310156124bb57848901516124b7601f8916826123c4565b8355505b6001600288020188555050505b505050505050565b600081519050919050565b600082825260208201905092915050565b60006124f7826124d0565b61250181856124db565b9350612511818560208601611b18565b61251a81611b42565b840191505092915050565b600060808201905061253a6000830187611c43565b6125476020830186611c43565b6125546040830185611ebd565b818103606083015261256681846124ec565b905095945050505050565b60008151905061258081611a6d565b92915050565b60006020828403121561259c5761259b611a37565b5b60006125aa84828501612571565b91505092915050565b60006040820190506125c86000830185611c43565b6125d56020830184611ebd565b9392505050565b7f4e487b7100000000000000000000000000000000000000000000000000000000600052601260045260246000fdfea2646970667358221220cace4e91c4e76c4411b983bf80563459761131bf7f5832f8be09d2b74322599164736f6c63430008140033",
  "linkReferences": {},
  "deployedLinkReferences": {}
}